:020000040800F2
:1000000058040020951900089D1900089F19000840
:10001000A1190008A3190008A51900080000000094
:10002000000000000000000000000000A719000808
:10003000A919000800000000AB190008AD1900085C
:10004000AF190008AF190008AF190008AF19000870
:10005000AF190008AF190008AF190008AF19000860
:10006000AF190008AF190008AF190008AF19000850
:10007000AF190008AF190008AF190008AF19000840
:10008000AF190008AF190008AF190008AF19000830
:10009000AF190008AF190008AF190008AF19000820
:1000A000AF190008AF190008AF190008AF19000810
:1000B000AF190008AF190008AF190008AF19000800
:1000C000AF190008AF190008AF190008AF190008F0
:1000D000AF190008AF190008AF190008AF190008E0
:1000E000AF190008AF190008AF190008AF190008D0
:1000F000AF190008AF190008AF190008AF190008C0
:10010000AF190008AF190008AF190008AF190008AF
:10011000AF190008AF190008AF190008AF1900089F
:10012000AF190008AF190008AF190008AF1900088F
:10013000DFF80CD001F0FAFF004800470502000884
:10014000580400201FB54FF4165000900020ADF861
:100150000400ADF80600ADF80800ADF80C000C2066
:10016000ADF80A006946374800F073FF012240F2FB
:100170002551344801F005F80121324800F0F5FF1F
:100180004021304801F0D9F81FBD08B54FF4C060D8
:1001900000F0AEFE25208DF8000000208DF8010053
:1001A00001208DF802008DF80300684600F0A5FEDE
:1001B00008BD08B54FF40070ADF8000003208DF8BD
:1001C000020018208DF8030069461F4800F070FBFC
:1001D0004FF48060ADF8000004208DF803006946FC
:1001E000194800F065FB08BD10B50121042000F09E
:1001F0001BFE0121880300F017FE0121084600F0D4
:1002000013FE10BD1CB5FFF7EFFFFFF7D2FFFFF79E
:10021000BCFFFFF797FF01F053FB00F0E3F810E09D
:100220000A490B4800F017F9084803C8CDE9000156
:1002300007480CC807A001F0EDFF40F2DC5001F0C8
:100240007CFBEDE700380140000801400800002079
:100250000000002054454D50524541545552453AF6
:100260002567202050524553535552453A25672063
:10027000200A000070B504460D46E1B2054800F0C2
:10028000E1FF00BF8021034801F04AF80028F9D0BF
:10029000204670BD0038014000B587B0012141F211
:1002A000040000F0C1FDE020ADF8040003208DF84B
:1002B000060018208DF8070001A9FD4800F0F8FAA3
:1002C0001020ADF8040003208DF8060010208DF8F2
:1002D000070001A9F64800F0EBFA0020ADF808008D
:1002E0004FF48270ADF80A000020ADF81600ADF8AA
:1002F0001000ADF80E000120ADF818000020ADF898
:100300000C004FF40070ADF812003820ADF8140066
:1003100002A9E84801F084F80121E64801F025F936
:1003200007B000BD70B50546002406E0601CC4B2ED
:10033000C82C02DDE0A001F06DFF0221DD4801F0D4
:1003400098F90028F2D02946DA4801F03FF9002454
:1003500006E0601CC4B2C82C02DDD7A001F05AFF31
:100360000121D44801F085F90028F2D0D14801F0EC
:100370002FF9C0B270BD70B500250026002400BF63
:100380001BE00020CE490860A02101EB4401C8B267
:10039000FFF7C8FF0020FFF7C5FF05460020FFF765
:1003A000C1FF064646EA0520C64921F8140001208F
:1003B000C549C1F89001601CC4B2072CE1DB70BDD7
:1003C00010B50020BE490860022001F092FA1E20FC
:1003D000FFF7A8FF032001F0B0FA0120BA49C1F8E5
:1003E000900110BD10B5FFF757FFFFF7E9FFFFF7CA
:1003F000C2FF10BD2DE9F04104460025002600276C
:10040000A8460020AE4908602046FFF78BFF142065
:1004100001F093FA0120AC49C1F890010020A849ED
:100420000860FFF77FFF0020FFF77CFF06460020F3
:10043000FFF778FF07460020FFF774FF8046012092
:10044000A149C1F89001300400EB072000EB08053A
:100450002846BDE8F0812DE9F34F93B04820FFF71F
:10046000C9FF11905820FFF7C5FF10900022974B4D
:100470001046590202F0D8FBCDE9040191494889A0
:1004800001F0ACFCCDE90201DDE9042301F0C5FB7C
:10049000CDE90801109801F0A1FCCDE90601DDE9E4
:1004A000082301F0B4FB06460F460022884B104695
:1004B0004FF0804102F0B8FBCDE904018149088981
:1004C00001F08CFC32463B46CDE9000101F0A5FB72
:1004D000CDE90201DDE9042301F011FC00227D4B8E
:1004E000CDE9080110464FF0804102F09DFBCDE9B7
:1004F00004017449888801F071FCCDE90201DDE94D
:10050000042301F08AFBCDE90601DDE9082301F0AF
:10051000DDFACDE90E0100226C4B1046590202F0C3
:1005200083FBCDE904016749C88801F057FC3246D6
:100530003B46CDE9000101F070FBCDE90201DDE9A8
:10054000042301F0DCFB0022634BCDE908011046D7
:100550004FF0804102F068FBCDE904015949488819
:1005600001F03CFCCDE90201DDE9042301F055FB7B
:10057000CDE90601DDE9082301F0A8FACDE90C0177
:100580000022564B10464FF0804102F04DFBCDE962
:1005900006014C49888901F021FC32463B46CDE9F1
:1005A000020101F03AFBCDE90401DDE9062301F087
:1005B000A6FB00224A4BCDE9080101F087FA044668
:1005C0000D460022464B2046294601F027FC6ED2FC
:1005D0000022444B10464FF0804102F025FB32468A
:1005E0003B46CDE908013046394601F016FBCDE91E
:1005F0000601DDE9082301F082FB804689460022DE
:10060000374B2046294601F002FB0022344BCDE94E
:1006100006012046294601F0FAFACDE90401DDE998
:10062000062301F0FAFACDE9080101F00FFC834638
:10063000584601F0E0FB00222B4BCDE9060101F00A
:10064000ECFACDE9080101F001FC8246584601F0C0
:10065000D2FB0022254BCDE9060101F0DEFACDE9FF
:10066000080101F0F3FB0B900022214B20462946A4
:1006700001F0D4FB69D200221E4B2046294601F02E
:1006800025FA00221B4BCDE906012046294601F040
:100690001DFACDE90401DDE9062301F0BEFACDE93A
:1006A000080101F0D3FB83465946134826E046E093
:1006B00000080140003001404552524F52210A00CB
:1006C000900121424400002000002142000020400F
:1006D00000001C400000304000002E400000374069
:1006E00000409F4000003F40000004400000F43FF5
:1006F000007097C0007097400000E04001F0B4F92E
:1007000051460A9001F058F98246584601F073FBB1
:100710000022334BCDE9020101F07FFACDE9060159
:100720000B9801F068FBCDE90401DDE9062301F037
:10073000CDF9CDE9080101F089FB0B9005E04FF000
:100740000008C146C24600200B90504601F053FB02
:10075000CDE90801DDE90E2301F05CFACDE90E01D7
:100760000B9801F048FBCDE90801DDE90C2301F00D
:1007700051FACDE90C0142464B462046294601F08C
:1007800046FA0022174BCDE9080101F0B8FA139A96
:1007900003C2119801F022FBCDE90001DDE90C2331
:1007A00001F03BFA0022104BCDE9020101F0A7FA5B
:1007B000CDE90401DDE90E2301F029FA00220B4BFB
:1007C000CDE9060101F09BFA0022064BCDE90801B4
:1007D00001F095FA149A03C215B0BDE8F08F00003D
:1007E0000000164000005940000040410000E04079
:1007F00010B50446CC48844208D10121042000F001
:100800002DFB0021042000F029FB46E0C74884426C
:1008100008D10121082000F021FB0021082000F070
:100820001DFB3AE0C248844208D10121102000F0AB
:1008300015FB0021102000F011FB2EE0BD48844282
:1008400008D10121202000F009FB0021202000F028
:1008500005FB22E0B848844208D10121402000F085
:10086000FDFA0021402000F0F9FA16E0B348844276
:1008700008D10121802000F0F1FA0021802000F051
:10088000EDFA0AE0AE48844207D10121801500F05C
:10089000E5FA0021A01500F0E1FA10BD10B5012124
:1008A000084600F0DBFA0021012000F0D7FA10BD65
:1008B0002DE9F041024600250026002000230024F7
:1008C000002791F803C00CF00F0591F803C00CF05D
:1008D000100CBCF1000F03D091F802C04CEA0505E2
:1008E00091F800C0BCF1000F31D0146800202BE05B
:1008F0004FF0010C0CFA00F3B1F800C00CEA03064B
:100900009E4220D183004FF00F0C0CFA03F7BC433A
:1009100005FA03FC4CEA040491F803C0BCF1280F6B
:1009200006D14FF0010C0CFA00FCC2F814C00AE02A
:1009300091F803C0BCF1480F05D14FF0010C0CFA3F
:1009400000FCC2F810C0401C0828D1D31460B1F8D4
:1009500000C0BCF1FF0F34DD546800202EE000F130
:10096000080C4FF0010808FA0CF3B1F800C00CEACB
:1009700003069E4221D183004FF00F0C0CFA03F7BF
:10098000BC4305FA03FC4CEA040491F803C0BCF133
:10099000280F05D100F1080C08FA0CF8C2F81480F1
:1009A00091F803C0BCF1480F07D100F1080C4FF0DB
:1009B000010808FA0CF8C2F81080401C0828CED3B1
:1009C0005460BDE8F0814FF6FF7101800221817013
:1009D0000421C17070470246002093680B400BB1A0
:1009E000012000E0002070470146886880B270470F
:1009F00002460020D3680B400BB1012000E000202C
:100A000070470146C86880B2704701617047416114
:100A100070470AB1016100E041617047C1607047F1
:100A20004FF480320A438261816182618269826906
:100A3000704702460020434B18684FF680731840F9
:100A400040EA021008433F4B186070473E49C861B6
:100A50007047F0B50A46002300240021002500F06D
:100A60000046B6F1004F02D1364EF16901E0354E35
:100A70007168C0F3034583B200F44016B6F5401F19
:100A800008D121F070612F4E766826F070662D4FE8
:100A90007E6012E000F48016B6F5801F06D10326B2
:100AA00006FA05F4A14341F0706106E0460D3601F7
:100AB00003FA06F6B14341F0706122B1460D3601EA
:100AC00003FA06F6314300F00046B6F1004F02D1BA
:100AD0001C4EF16101E01B4E7160F0BD30B500228B
:100AE0008B071C0F0F2303FA04F2164B08338C10EC
:100AF00053F824309343134C08348D1044F82530B8
:100B000023468C1053F824308C07240F00FA04F489
:100B100023430C4C08348D1044F8253030BD0A496D
:100B2000DC3108607047000000080140000C014003
:100B3000001001400014014000180140001C014059
:100B4000002001400000014000002042DF48006812
:100B500040F00100DD49086008464068DC49084073
:100B6000DA49486008460068DA490840D749086011
:100B70000846006820F4802008600846406820F499
:100B8000FE0048604FF41F0088607047CF49096835
:100B900021F48031CD4A11601146096821F4802189
:100BA0001160B0F5803F03D0B0F5802F0ED106E084
:100BB000C649096841F48031C44A116007E0C3495D
:100BC000096841F4A021C14A116000E000BF00BFE4
:100BD000704710B501460022002300204A11012A67
:100BE00002D1BA4C236806E0022A02D1B74C236A2C
:100BF00001E0B64C636A01F01F02012494401C40DE
:100C00000CB1012000E0002010BD38B5002000909C
:100C10000024002500BF3120FFF7DBFF05460098C8
:100C2000401C00900098B0F5A06F01D0002DF2D0CC
:100C30003120FFF7CEFF08B1012400E00024204658
:100C400038BD01460020A14A106820F0F80040EAB3
:100C5000C10010607047A04908607047024600203C
:100C60009A4B586820F47C1042EA01031843974BD2
:100C70005860704798490866704701460020934ABB
:100C8000506820F003000843506070478F48406868
:100C900000F00C007047014600208C4A506820F09C
:100CA000F00008435060704701460020874A5068B2
:100CB00020F4E06008435060704701460020834AFA
:100CC000506820F4605040EAC1005060704729B17C
:100CD0007E4A527A02437D4B5A7204E07B4A527A32
:100CE00082437A4B5A7270477B49D831086070470B
:100CF00001460020754A506820F440400843506087
:100D000070470021714A20321170704A82F8201019
:100D1000012802D004280AD104E001216B4A2032C4
:100D2000117005E00521694A2032117000E000BF12
:100D300000BF70476949086070476449096A014308
:100D4000624A11627047654944390860704730B59E
:100D500000210022002400235C4D6D6805F00C0189
:100D600021B1042905D0082923D105E05C4D056097
:100D700022E05B4D05601FE0544D6D6805F4701274
:100D8000524D6D6805F48034022505EB92421CB982
:100D9000544D554305600BE04C4D6D6805F400352E
:100DA0001DB1504D5543056002E04D4D5543056062
:100DB00002E04B4D056000BF00BF444D6D6805F07B
:100DC000F0010909484D6B5C0568DD4045603F4D09
:100DD0006D6805F4E061090A434D6B5C4568DD40D0
:100DE00085603A4D6D6805F46051C90A3E4D6B5CF3
:100DF0004568DD40C560354D6D6805F44041890B9F
:100E00003A4D6B5CC568B5FBF3F5056130BD29B1A2
:100E10002E4A526902432D4B5A6104E02B4A526913
:100E200082432A4B5A61704729B1284A926902438A
:100E3000264B9A6104E0254A92698243234B9A61CA
:100E4000704729B1214AD2690243204BDA6104E09C
:100E50001E4AD26982431D4BDA61704729B11B4A91
:100E6000D2680243194BDA6004E0184AD268824320
:100E7000164BDA60704729B1144A12690243134BCA
:100E80001A6104E0114A12698243104B1A617047DB
:100E900012494039086070470F49C86470470B49D0
:100EA000C87170470948406A40F08070074948623D
:100EB000704701460020054A92680A400AB10120A5
:100EC00000E000207047014988727047001002401E
:100ED0000000FFF8FFFFF6FE00004242800442429D
:100EE00000127A0000093D001000002020000020C0
:100EF00031490143314A1160704770B50021002328
:100F00000F22C47804B32D4C246804F4E064C4F5C3
:100F1000E064210AC1F10403CA40447804FA03F1F1
:100F20008478144021430901254C0678A1550478A2
:100F300004F01F050124AC4005786D11AD0005F1EA
:100F4000E025C5F8004109E0047804F01F050124FC
:100F5000AC401C4D0678761145F8264070BD1A4A03
:100F60000A400243154B1B1F1A60704739B1134AE0
:100F7000121D12680243114B1B1D1A6006E00F4A36
:100F8000121D126882430D4B1B1D1A607047042806
:100F900008D14FF0E021096941F004014FF0E0224F
:100FA000116107E04FF0E021096921F004014FF0E1
:100FB000E0221161704700000000FA050CED00E02E
:100FC00000E400E080E100E080FFFF1F10B5044670
:100FD000FB48844209D101218803FFF73FFF00212C
:100FE0004FF48040FFF73AFF32E0F648844209D1DF
:100FF00001214804FFF73FFF00214FF40030FFF7C5
:101000003AFF25E0F048844209D101218804FFF726
:1010100032FF00214FF48020FFF72DFF18E0EB484E
:10102000844209D10121C804FFF725FF00214FF4B4
:101030000020FFF720FF0BE0E548844208D10121A2
:101040000805FFF718FF00214FF48010FFF713FF8A
:1010500010BD2DE9F04786B005460E460024A24695
:1010600000BFA1460027B08900B100BF2F462C8ADF
:101070004CF6FF700440F08804432C82AC894EF695
:10108000F3100440B0883189084371890843044350
:10109000AC81AC8A4FF6FF400440B0890443AC8277
:1010A00001A8FFF754FEC648874202D1DDF810A020
:1010B00001E0DDF80CA0A88900F4004040B10AEB83
:1010C000CA0000EB0A1031684900B0FBF1F807E0F4
:1010D0000AEBCA0000EB0A1031688900B0FBF1F896
:1010E0006420B8FBF0F004012009642101FB1089A1
:1010F000A88900F4004040B1322000EBC900B0FBE9
:10110000F1F000F00700044308E0322000EB091082
:101110006421B0FBF1F000F00F0004432C8106B015
:10112000BDE8F0874FF41651016000218180C18035
:1011300001810C21418100218181704710B5024657
:101140000020108A4FF2FF0318400B884C8823437D
:101150008C882343CC8823431843108210BD002180
:10116000018041808180C180704721B1828942F431
:101170000052828104E082894DF6FF731A40828119
:101180007047F0B50346002400260025002040F6F5
:101190006A17B94200D100BF1846C1F3421401F0EA
:1011A0001F06012707FA06F5012C01D10C3004E0D7
:1011B000022C01D1103000E014301AB107682F431F
:1011C000076002E00768AF430760F0BD1AB1838A89
:1011D0000B43838202E0838A8B4383827047028AB7
:1011E0004FF6F0731A400282028A0A430282704765
:1011F00082894FF2FF731A40828182890A43828179
:10120000704721B1828942F00202828104E0828922
:101210004FF6FD731A4082817047028A4FF6DF73E2
:101220001A400282028A0A430282704721B1028A6E
:1012300042F48042028204E0028A4BF6FF731A40B5
:1012400002827047C1F30802828070470146888895
:10125000C0F308007047818941F001018181704726
:10126000028BD2B20283028B42EA012202837047D0
:10127000028B02F47F420283028B0A43028370478F
:1012800021B1828A42F02002828204E0828A4FF6F3
:10129000DF731A408282704721B1828A42F01002C5
:1012A000828204E0828A4FF6EF731A40828270478E
:1012B00021B1828A42F00802828204E0828A4FF6DB
:1012C000F7731A408282704721B1828942F400424A
:1012D000828103E08289C2F30E028281704721B1CC
:1012E000828A42F40062828204E0828A4FF2FF73B3
:1012F0001A4082827047828A4FF6FB731A408282BC
:10130000828A0A438282704721B1828A42F00202B5
:10131000828204E0828A4FF6FD731A40828270470F
:1013200002460020B1F5007F00D100BF13880B40BA
:101330000BB1012000E00020704701F40072B2F50B
:10134000007F00D100BFCA430280704770B50246DB
:10135000002400230025002040F66A16B14200D187
:1013600000BFC1F3421501F01F03012606FA03F383
:10137000012D02D19689334006E0022D02D1168A52
:10138000334001E0968A33400C12012606FA04F439
:101390001688344013B10CB1012000E0002070BD6C
:1013A00010B50022002340F66A14A14200D100BF0C
:1013B0000A1201249440A3B2DC43048010BD000053
:1013C000003801400044004000480040004C00400C
:1013D0000050004010B50446BE48844208D10121A7
:1013E0008014FFF73BFD0021A014FFF737FD16E046
:1013F000B948844208D101210014FFF73CFD0021C7
:101400002014FFF738FD0AE0B448844207D10121D7
:10141000C013FFF730FD0021E013FFF72CFD10BDD6
:1014200010B50022028802F441520B884C882343F5
:101430008C882343CC8823430C8923434C89234342
:101440008C892343CC8923431A430280838B4FF238
:10145000FF74234083830B8A038210BD2DE9F04F74
:1014600085B005460C464FF0000902274FF00008F2
:101470004FF0010B0026B246A88B4FF24001084006
:10148000A88302202884B5F81C90A068022801D106
:1014900000BF38E0A08810B94FF0010B01E04FF019
:1014A000020B8D48854200D100E000BF6846FFF77F
:1014B0004EFCDDF800A0E088B0F5007F0AD14FEACD
:1014C0001A2000EB80004000A168B0FBF1F0401D45
:1014D00086B20BE04FEA4B10BAFBF0F000EB800055
:1014E0004000A168B0FBF1F0401D86B20A20B6FBB7
:1014F000F0F606F00108A6EB0800C0F34F074FF620
:10150000FF7000EA0828022F01DBFF2F02DD02270F
:101510004FF00008E08840EA080038432884A0889B
:10152000A1890843618808432188084340F400608A
:1015300040EA0909A5F81C9005B0BDE8F08F00212C
:10154000018041808180C180018141818181C1818F
:101550000721018270470021018041808180C18084
:101560000221816000218181704721B1028842F00F
:101570004002028004E002884FF6BF731A400280E6
:10158000704721B1828B42F48062828304E0828BB7
:101590004FF6FF331A408283704730B50024002392
:1015A0000C110125A540ABB21AB185881D43858079
:1015B00002E085889D43858030BD1AB183880B4346
:1015C000838002E083888B438380704781817047EA
:1015D0000146888970474FF6FF62914204D0028825
:1015E00042F48072028004E002884FF6FF631A40E2
:1015F0000280704721B1828842F00402828004E0B8
:1016000082884FF6FB731A408280704702884FF23F
:10161000FF731A40028002880A43028070470188E3
:1016200041F480510180704721B1028842F4005298
:10163000028004E002884DF6FF731A400280704772
:1016400002460020012901D0108B00E0908A7047EB
:101650000146088A7047B1F5804F04D1028842F4F0
:101660008042028004E002884BF6FF731A40028039
:1016700070470246002013890B400BB1012000E0A7
:1016800000207047CA4302817047F0B5024600202F
:1016900000240023002501F00F070126BE40B4B24C
:1016A0000B1101269E40B3B2968806EA03051689FF
:1016B000264016B10DB1012000E00020F0BD10B5AC
:1016C000002201F00F040123A3409AB2D343038107
:1016D00010BD00000030014000380040003C0040D8
:1016E0000CB50020019000906C48006840F48030F8
:1016F0006A49086000BF6948006800F40030009043
:101700000198401C0190009818B90198B0F5A06F9D
:10171000F1D16248006800F4003010B1012000905F
:1017200001E0002000900098012843D15C48006847
:1017300040F010005A4908600846006820F0030095
:1017400008600846006840F002000860534840689E
:10175000524948600846406848600846406840F47E
:10176000806048600846406820F47C104860084665
:10177000406840F4E81048600846006840F0807017
:10178000086000BF4548006800F000700028F9D0EC
:101790004248406820F003004049486008464068DD
:1017A00040F00200486000BF3C48406800F00C0078
:1017B0000828F9D10CBD10B5FFF792FF10BD10B588
:1017C0003648006840F00100344908600846406827
:1017D00034490840314948600846006832490840A9
:1017E0002E4908600846006820F4802008600846FA
:1017F000406820F4FE0048604FF41F008860FFF747
:10180000DAFF4FF000602949086010BD10B50021D3
:1018100000200022214B5B6803F00C0121B1042958
:1018200006D0082928D107E0214B224C236027E06D
:101830001F4B204C236023E0184B5B6803F47010AF
:10184000164B5B6803F48032022303EB904022B90D
:10185000194B4343174C23600DE0104B5B6803F4B6
:10186000003323B1144B4343124C236003E0104B6D
:101870004343104C236003E00D4B0E4C236000BF2C
:1018800000BF064B5B68C3F303130C4CE15C094BD0
:101890001B68CB40074C236010BD000000100240C5
:1018A000002002400000FFF8FFFFF6FE08ED00E018
:1018B00000127A002400002000093D0028000020CA
:1018C00010B56FF00400FFF762FB2E4800682E4948
:1018D000B0FBF1F02D4908700846007800EB40019C
:1018E000C1EBC0104FF6FF7101EAC0002849088023
:1018F00010BD0146254A12784A434FF0E0235A6151
:1019000000229A611A46126942F001021A6100BF70
:101910004FF0E022106900F001021AB100F48032A9
:10192000002AF5D04FF0E022126922F001024FF0B8
:10193000E0231A6100229A6170470146144A128816
:101940004A434FF0E0235A6100229A611A46126915
:1019500042F001021A6100BF4FF0E022106900F06E
:1019600001021AB100F48032002AF5D04FF0E022D3
:10197000126922F001024FF0E0231A6100229A61FD
:10198000704700002400002000127A003800002078
:101990003A0000200648804706480047FEE7FEE779
:1019A000FEE7FEE7FEE7FEE7FEE7FEE7FEE7FEE70F
:1019B000BF17000831010008F0B480EA0102D40F1B
:1019C0004200B2EB410F02D20246084611464A00DD
:1019D00042D0C30DDDB2C1F3C752AD1A202D35DAA6
:1019E000C1F3160141F4000204B15242C5F12006D0
:1019F00002FA06F12A411044B3EBD05F23D0C4B100
:101A0000012DA0EBC35009DCF0BC4FF0004202EA0C
:101A1000C352DBB200F5000000F0A5BA400000F1AF
:101A2000807000EBC350A0F1807040EAD170490093
:101A300009E0490841EAC071A0EBC35000F500007D
:101A4000400800EBC350F0BC00F084BA61420122B0
:101A500002EB4101001BF6E7F0BC704781F000414A
:101A6000AAE780F00040A7E780EA010210B502F083
:101A70000043400022D04A001FD0010E01EB12614A
:101A8000C0F35600C2F3560240F4000042F40002D4
:101A9000A0FB022000047F39140400D0401C50EA4F
:101AA000124001D44000491EC2B20C0604EBD01013
:101AB000401C4008802A02D003E0002010BD20F026
:101AC0000100002900DA0020184310BD2DE9FE4F67
:101AD000804681EA0300C00F0C46009021F00041CF
:101AE00023F00045B8EB0200A94105D2404621464B
:101AF00090461C460B46024623F00040104347D058
:101B0000270DC7F30A00C3F30A510290401A01904F
:101B100040286BDAC3F3130040F4801B0098924610
:101B200020B10023D2EB030A63EB0B0B019859465B
:101B3000C0F14002504600F0ECF906460D46504612
:101B40005946019A00F0F4F910EB080061410024B5
:101B500087EA115284EAE7731A4340D0009A62B3CD
:101B6000019A012A4FEA075215DC001B61EB0201C2
:101B70004FF0004202EA0752CDE90042001C41F555
:101B8000801132462B4600F02BFA03B0BDE8F08FEF
:101B900040462146F9E7001B61EB0201001C41F5BC
:101BA000801300185B412018A2F5001747EB0301D2
:101BB00040EAD570B6196D4111E06D084FEA36065E
:101BC00045EAC0754FEA0752001B61EB0201001C99
:101BD00041F5801149084FEA300000195141324661
:101BE0002B4603B0BDE8F04F00F0EBB9009801229E
:101BF00040000023D0EB020263EBE0730098214623
:101C00004FEAE074B8EB000061EB0401E9E783F010
:101C100000435BE781F0004158E72DE9FE4F81EA80
:101C2000030404F0004421F0004100944FF0000B45
:101C300023F0004350EA01045ED052EA03045BD073
:101C4000C3F30A54C1F30A552C44A4F2F3340194AB
:101C5000A0FB0254C1F3130141F48011C3F3130339
:101C600043F4801301FB024400FB034E840A970AED
:101C700044EA815447EA8357A4FB076802958D0A1A
:101C800005FB07854FEA932C04FB0C542705029DA6
:101C90004FEA065847EA1637B5EB08056EEB070C16
:101CA000870E920E47EA811742EA8312A7FB0201D0
:101CB000B6EB0B0164EB00042B0D43EA0C335E180A
:101CC00044EB1C50DA465146E7FB0201C5F313040E
:101CD0004FEA0B3343EA14534FEA0432019C43EAC0
:101CE0000603A4F10C040294009CCDE900B400F0BA
:101CF00077F903B0BDE8F08F00200146F9E72DE940
:101D0000F04D81EA030404F0004B21F00045144635
:101D10004FF0000A23F0004150EA050220D054EAB7
:101D200001021DD0C5F30A570246C5F31303C1F3E0
:101D30001300C1F30A5640F4801543F48013A7EB57
:101D40000608101BD64608F2FD3873EB050002D3D7
:101D500008F1010801E092185B41B8F1000F03DAC5
:101D600000200146BDE8F08D00204FF480110646AA
:101D700084460EE0171B73EB050705D3121B63EBBC
:101D8000050306434CEA010C49084FEA300092185B
:101D90005B4150EA0107EDD152EA030012D082EA1A
:101DA000040083EA0501084305D0101BAB4106D2AD
:101DB0000122002306E000224FF0004302E06FF012
:101DC000010253101AEB06004CEB085110EB0A000D
:101DD00041EB0B01BDE8F04D00F0F3B80EB540F259
:101DE000334102910021CDE900110A460B4600F073
:101DF000F7F803B000BD00F0004230F000400AD018
:101E0000C10D01F56071C0F3160042EA0151C2082C
:101E100040071143704700200146704730B5041E4B
:101E200071F1000404DB4FF00044404264EB010117
:101E3000141E73F1000405DB1C464FF000435242B0
:101E400063EB04038B4208BF824230BD01F00043C4
:101E500030B421F0004150EA010206D00A0DA2F58B
:101E60006072C1F31301002A02DC30BC002070470D
:101E7000440F44EAC104C100E01830BC00EBC2507A
:101E800000F068B830B50B4601460020202201243E
:101E900009E021FA02F59D4205D303FA02F5491B38
:101EA00004FA02F52844151EA2F10102F1DC30BD4E
:101EB0002DE9F05F0546002092469B46884606467F
:101EC000814640241BE0284641464746224600F012
:101ED0003FF953465A46C01A914110D3114618464D
:101EE000224600F016F82D1A67EB01084F462246ED
:101EF0000120002100F00DF817EB00094E41201ED3
:101F0000A4F10104DFDC484631462A464346BDE8D9
:101F1000F09F202A04DB203A00FA02F100207047EB
:101F20009140C2F1200320FA03F319439040704717
:101F3000202A06DBCB17203A41FA02F043EAE0738D
:101F400006E041FA02F3D040C2F12002914008437A
:101F5000194670470029A8BF7047401C490008BFB8
:101F600020F00100704710B4B0FA80FC00FA0CF0C9
:101F700050EA010404BF10BC704749B1CCF1200401
:101F800021FA04F411FA0CF118BF0121214308438E
:101F9000A3EB0C01CB1D4FEA00614FEA102042BFBA
:101FA000002010BC704700EBC35010440029A4BFB0
:101FB00010BC7047401C490008BF20F0010010BC55
:101FC000704710B5141E73F1000408DA401C41F18B
:101FD000000192185B411A4301D120F0010010BDAD
:101FE0002DE9F04D92469B4611B1B1FA81F202E023
:101FF000B0FA80F220329046FFF78BFF04460F467E
:1020000040EA0A0041EA0B0153465A46084313D0FE
:10201000114653EA010019D0C8F14002504600F0C1
:1020200097F805460E46504659464246FFF771FF5F
:10203000084305D0012004E020463946BDE8F08D74
:102040000020054346EAE0762C4337430A986305AF
:10205000E40AA0EB08000022FD0A44EA47540A30D3
:1020600002D500200146E9E7010510196941DDE9C3
:10207000084500196941BDE8F04DA2E770B521F0AF
:10208000004303430CD0C1F30A550024D5EB0405EB
:1020900064EB0403D617AD1AB34102DB00200146FE
:1020A00070BD201841EB025170BD0EB5C10F80EA22
:1020B000E0700844CA07002140F233438DE80E0067
:1020C0000A460B46FFF78CFF03B000BDC1F30A526E
:1020D000C1F3130140F2FF3341F480119A4202DA56
:1020E00000200146704740F233439A42A2F2334245
:1020F00002DC524200F02CB8FFF70BBF30B5041ED3
:1021000071F1000404DB4FF00044404264EB010134
:10211000141E73F1000405DB1C464FF000435242CD
:1021200063EB0403994208BF904230BD064C074D53
:1021300006E0E06840F0010394E807009847103497
:10214000AC42F6D3FDF7F8FFE03600080037000890
:10215000202A04DB203A21FA02F00021704721FAFC
:1021600002F3D040C2F12002914008431946704763
:102170002DE9F04D00231A461B1A8A4103DB00208B
:102180000146BDE8F08DC1F30A52C1F3130141F4D9
:1021900080154FF0000BD10702D100186D41521E7F
:1021A0000027044640F2FF11384601EB620A3E4622
:1021B0008046024600204FF48011FFF7C9FFC21984
:1021C0007141BB1846EB0100B4EB030C75EB000C3E
:1021D00004D3E41A65EB000517460E46241908F1EE
:1021E00001006D4180463428E3DDF91946EB060015
:1021F000091BA84103D24FF0FF32134601E0002231
:1022000013461BEB070046EB0A51BDE8F04DFFF704
:10221000D8BE00000FB4054B10B503A9044A0298BC
:1022200000F06AF910BC5DF814FB000075020008AC
:102230003C000020490050EAC12018BF04204A0D8C
:1022400018BF40F0010040F2FF72B2EB515F08BFCF
:1022500040F00200012808BF052070472DE9F04139
:102260004F1E00EBC7010446D1E9000115461E468A
:1022700037F006020DD02A463346FFF7CEFC7F1E0C
:1022800004EBC703D3E90023FFF720FC37F0060275
:10229000F1D1022F25D0042F13D0062F18BFBDE88F
:1022A000F0812A463346FFF7B8FCD4E90A23FFF74A
:1022B0000DFC2A463346FFF7B0FCD4E90823FFF7AC
:1022C00005FC2A463346FFF7A8FCD4E90623FFF7AE
:1022D000FDFB2A463346FFF7A0FCD4E90423FFF7B1
:1022E000F5FB2A463346FFF798FCD4E90223FFF7B3
:1022F000EDFB2A463346FFF790FCD4E90023BDE806
:10230000F041FFF7E3BB00000022134610460149ED
:10231000FFF7F5BC0000F03FFFF7D8BB00221346E3
:1023200010461146FFF7EBBC40F2013200204FF09F
:10233000E041FFF7A3BE0000024A00201107FFF7AB
:102340009DBE000001FDFFFF02E008C8121F08C18A
:10235000002AFAD170477047002001E001C1121F26
:10236000002AFBD170470000014908607047000057
:10237000400000202DE9FF5F82B00021DDE904303C
:10238000020DDDF840B0034318D044F61050A2F21D
:10239000FF3242431514119801281FD0A5EB0B0002
:1023A000401C5FEA000A4FF000064E4FDFF83891FC
:1023B000B046504615D5CAF1000413E01198012427
:1023C0004AA3012801D16FEA0B010298119AC0E9D2
:1023D0000031C0E9024206B0BDE8F09FCBF1000039
:1023E000DFE704460021404A491842EB0450CDE99A
:1023F000001012E0E00707D032463B46404649460F
:10240000FFF70BFC8046894632463B46104619468C
:10241000FFF703FC06460F466410002CEAD1DDE905
:102420000401DDE90023BAF1000F06DAFFF7F5FB3E
:1024300042464B46FFF7F1FB05E0FFF760FC4246E2
:102440004B46FFF75CFC04460E460022284BFFF784
:1024500055FE03D84FF0FF30014607E00022254B20
:1024600020463146FFF732FBFFF730FE102409E02B
:10247000002C0ADB0A220023FFF71AFD039B3032EF
:102480001A55641E50EA0102F2D1641C039AC4F189
:1024900011031444119A012A03D0012208430DD1DB
:1024A0000AE0084304D000204FF0110B119072E7AE
:1024B000A3EB0B056D1E0DE05B4504DD4FF0000244
:1024C00005F1010504E003DA4FF00002A5F1010572
:1024D000002AECD002981199C0E90231C0E9004508
:1024E00079E70000000014400000F03F30000000D9
:1024F0000000F0430000E03F2DE9FF4F95B09B4600
:102500008946064600250FE2252877D10024274674
:10251000F84A0121059400E0044316F8013F203BEE
:1025200001FA03F01042F7D130782A2811D06FF069
:102530002F033078A0F13002092A16D8059A44F00A
:10254000020402EB820203EB42021044761C059067
:10255000EFE759F8042B0592002A03DA504244F4BD
:102560000054059044F00204761C30782E2816D1D1
:1025700016F8010F44F004042A280DD06FF02F0242
:102580003078A0F13003092B09D807EB870302EB61
:102590004303C718761CF3E759F8047B761C3078A0
:1025A0006C280FD006DC4C2817D068280DD06A287C
:1025B00014D104E0742810D07A280FD10DE044F42F
:1025C00000140AE044F4801401E044F440147278EA
:1025D000824202D104F58014761C761C307866287D
:1025E0000BD013DC582877D009DC002875D045289B
:1025F000F6D04628F4D047281AD19DE118E0632888
:1026000035D0642879D0652812D195E1702873D02F
:1026100008DC6728F1D069286FD06E280DD06F28AC
:1026200006D1B5E073282CD0752875D0782874D0E1
:102630005A46179990476D1C75E1C4F30250022861
:1026400009D003280DD0D9F8001004280DD00D6052
:1026500009F1040967E1D9F80010EA17C1E900524D
:10266000F6E7D9F800100D80F2E70D70F0E719F8E1
:10267000041B8DF8001000208DF80100EA460120AF
:1026800003E059F804AB4FF0FF3061074FF0000151
:1026900002D40DE008F101018846B9420FDA804505
:1026A000F8DB1AF808100029F4D108E008F101015C
:1026B00088468142FADB1AF808100029F6D10598FD
:1026C0005B46A0EB080721463846179A00F094FABB
:1026D000284400EB080507E04DE029E10DE01AF879
:1026E000010B5A4617999047B8F10108F7D25B469B
:1026F00021463846179A13E142E00A220092C4F3B9
:1027000002524FF0000A022A08D059F804CB032ADB
:102710004FEAEC710AD00DE029E02AE009F1070147
:1027200021F00702F2E802C1914609E00FFA8CFCA1
:102730004FEAEC71042A03D14FFA8CFC4FEAEC719A
:10274000002907DA0A460021DCF1000C61EB0201E6
:102750002D2202E0220504D52B228DF8042001222F
:1027600003E0E20701D02022F7E7904659E00A2172
:1027700002E010220DE010214FF0000A00910BE062
:1027800010224FF0000A44F004040827009203E0EE
:1027900008224FF0000A0092C4F30252022A05D028
:1027A00059F804CB0021032A08D009E009F10701F8
:1027B00021F00702F2E802C1914605E01FFA8CFC05
:1027C000042A01D10CF0FF0C4FF00008220728D595
:1027D000702806D0009B83F0100353EA0A0305D04B
:1027E0000EE040228DF80420012208E05CEA01029C
:1027F00006D030228DF804208DF805000222904684
:10280000009B83F0080353EA0A030AD15CEA010241
:1028100001D1620705D530228DF804204FF0010860
:102820007F1E582804D034A003900EA802900DE01B
:1028300036A0F9E753466046009AFFF739FB844615
:102840000398825C0298401E029002705CEA0100CC
:10285000F0D1029806A9081A00F1200A600702D5F3
:1028600024F4803400E00127574502DDA7EB0A007D
:1028700000E0002000EB0A01009005984144401A56
:102880000590E00306D45B462146179A059800F0B0
:10289000B3F90544002706E001A85A46C05D179920
:1028A00090476D1C7F1C4745F6DBE0030CD55B466B
:1028B0002146179A059800F09FF9054404E030205E
:1028C0005A46179990476D1C0099481E00900029A0
:1028D000F5DC08E0029802995A460078491C0291FA
:1028E000179990476D1CBAF10001AAF1010AF1DCB9
:1028F00065E10000092801003031323334353637C4
:10290000383961626364656600000000303132333B
:1029100034353637383941424344454600000000DB
:1029200000F058F90544761C307800287FF4ECADAF
:1029300019B02846BDE8F08F620700D4062709F1D8
:10294000070222F0070CFCE80223E14603F00048EE
:102950005FEA080C02D00FF2702C0DE05FEA045C15
:1029600002D50FF2682C07E05FEAC47C02D00FF2B8
:10297000602C01E0AFF2700C4FF0FF3823F0004301
:10298000CDF850C065280CD006DC452809D0462873
:102990001DD047283DD13DE0662818D067287ED15C
:1029A00038E00021112F01DB112000E0781CCDE977
:1029B000000106A90EA8FFF7DDFCDDE90F010E9A64
:1029C00003910021009207F1010A04914DE04FF0BC
:1029D00000400097CDE9011006A90EA8FFF7CAFC38
:1029E000DDE90F0203920E9B11990022DDF80CA085
:1029F0000093049211B9791C00EB010AB7EB0A00AD
:102A000004D4C0F1FF3007F1010A0490AAEB0700DB
:102A1000019044E0012F00DA01270021112F01DD90
:102A2000112000E03846CDE9000106A90EA8FFF705
:102A3000A1FCDDE90F010E9A03910021049100929F
:102A4000BA4621070CD40399514500DA8A46BAF1F7
:102A5000010F05DD009AAAF10101515C302908D06F
:102A6000B84202DA10F1040F06DA0121CDE90110B3
:102A700015E0AAF10101E9E7002805DC0499014409
:102A80000491AAEB000102E0411C514500DD8A4699
:102A90000499401A401C01904FF00040029020071A
:102AA00004D40198504501DBCDF8048000208DF856
:102AB0004F0002980DF14F07B0F1004F25D02B20A9
:102AC0000E9002984FF0020800280CDA4042029063
:102AD0002D200E9007E00A210298FFF7D3F930313C
:102AE000029007F8011DB8F10001A8F10108F2DC1D
:102AF00002980028EFD1791E0E980870307800F007
:102B0000200040F0450007F8020D12A8C01B00F19C
:102B100007081498007800B1012000EB0A01019821
:102B200001EBE07105984144401A401E0590E00316
:102B300006D45B462146179A059800F05DF80544D7
:102B40001498007818B15A46179990476D1CE00305
:102B500024D55B462146179A059800F04DF80544A8
:102B60001CE00498002807DBDDE90301884203DD4F
:102B70000098405C179901E0179930205A46904719
:102B8000049805F10105401C04900198401E019035
:102B900004D12E205A46179990476D1CBAF10001B6
:102BA000AAF1010ADDDC05E017F8010B5A46179976
:102BB00090476D1CB8F10001A8F10108F4DC5B46F8
:102BC0002146179A0598ABE62D0000002B00000067
:102BD000200000002DE9F041044600251E4617465E
:102BE000880404D405E039462020B0476D1C641EDB
:102BF000F9D52846BDE8F0812DE9F04104460025CD
:102C00001E469046C80301D5302700E020278804DF
:102C100004D505E041463846B0476D1C641EF9D521
:102C20002846BDE8F08100002DE9F04D1D460C4618
:102C300098B0174621F0004123F00043002814BF4C
:102C40004FF0010C4FF0000C0CEB440CFE4A0CEB67
:102C500002064FEA620C66452BD33E0018BF0126E0
:102C600006EB45061644F94A964222D3F84A53EA3F
:102C7000070C02D0944205D148B918B00020114683
:102C8000BDE8F08D002808BF4FF0000C01D04FF0D8
:102C9000010C0CEB440212F5001F0AD8002F14BFE0
:102CA0004FF0010C4FF0000C0CEB450212F5001F29
:102CB00007D918B03A462B462146BDE8F04DFFF73C
:102CC0002BBB0022DFF88CA3002CB8BF534526DABB
:102CD000DFF884C36345A8BF022220DADFF870C39F
:102CE0009C451CDCDFF874C30CEB235CBCF1140FB7
:102CF00008DDCCF1340627FA06FC0CFA06F6BE42D3
:102D00000DD108E05FB9CCF1140623FA06FC0CFAE9
:102D100006F69E4203D10CF00102C2F1020251EA12
:102D2000000C19D1002D17DA002C18BF022A01D08F
:102D3000012A07D00220FFF717FB18B0BDE8F04DBD
:102D4000FFF7E2BA0220FFF70FFBFFF7DDFA18B03A
:102D500081F00041BDE8F08DB7F1000C6CD1534516
:102D600025D104F1804212F5801201BF0028002015
:102D7000B74918B008BFBDE8F08DB548884207DCF8
:102D8000002DA1BF6046294618B0BDE8F08D07E0D0
:102D9000281E05DA80F0004118B06046BDE8F08DCD
:102DA000AF497944D1E9000118B0BDE8F08DDFF8F2
:102DB000A0C2634525D1002D1FDA19B1514512D1AA
:102DC000D8B909E0002840F0EC82A24A214618B0A8
:102DD00062F31E01BDE8F08D0020214618B060F3BB
:102DE0001E01BDE8F08D08DA18B02346BDE8F04DAD
:102DF000024600206146FEF782BF18B02146BDE8BA
:102E0000F08D514518DAB5F1804F0DD0A5F1005C79
:102E1000BCF1FF5C10D1B4F1000C0DDB18B06146C1
:102E2000BDE8F04D00F0ECBB234618B00246BDE80B
:102E3000F04D1946FEF7F1BE060024F0004C3BD1E0
:102E4000D9B1514533D1002C06DD002DA1BF0020A2
:102E5000514618B0BDE8F08D002C01DD002D1BDBC4
:102E6000002C13DA002D11DB012A4FF0000014BFF3
:102E700078497C4918B0BDE8F08D022A18BF002CB3
:102E80000AD0012A08D1002C06DA0AE0002CB8BFCB
:102E9000002D11DA012A04D0002018B00146BDE847
:102EA000F08D18B000204FF00041BDE8F08DA1F189
:102EB0004050B0F17F601AD0012000EBE47050EA7E
:102EC000020421D0624C521E4FF0000B104304BF8D
:102ED0004FF0000B644C654883427CDD644A6548D2
:102EE00093421FDD884217DB002D25DB37E0002CE5
:102EF00000DA4AB1022A0CBF01204FF0FF3018B0AF
:102F0000BDE8F04DFFF7D1B80120FFF72DFA18B05A
:102F1000BDE8F04DFFF702BA4D4A8A4202DC002DAF
:102F20000ADC1CE0814202DA002D18DA04E0484B8A
:102F3000994220DD002D12DD0220FFF715FAFFF780
:102F4000F3F905460E460022534658462146FEF741
:102F500064FE18B066F31E012846BDE8F08D02201D
:102F6000FFF702FAFFF7E8F90A46214618B062F3C4
:102F70001E01BDE8F08D002230466146FEF747FE97
:102F800080460E466FF00102FFF778F84FF0553299
:102F9000394BFEF73FFE42463346FEF73EFE002227
:102FA000364BFEF737FE82464246334604911046C2
:102FB0001946FEF732FE5246049BFEF72EFE8A4665
:102FC00000904FF0C0422E4B40463146FEF725FEA2
:102FD0002C4A2B4B00E027E0CDE906015146009832
:102FE000FEF71BFE82460191274A284B4046314698
:102FF000FEF713FE5246019BFEF709FE82460B4682
:1030000002460591DDE90601FEF760FDDDE90623D4
:10301000002688463046FEF7FAFD5246059BFEF72D
:10302000F9FD024600F07EB90020B1F5801F07DAF5
:10303000352230466146FFF721F806466FF034002E
:1030400000EB215024E00000FFFF1F00FFFF0F00F6
:103050000000F03F0000F07F0000404301FCFFFF54
:10306000320900000000F0FF0000F0BF0000E04166
:103070000000F043FFFFEF3F5555D53F0000E03F14
:103080004715F73FFE822B6544DF5DF80BAE543EDB
:10309000A0F2FF300190C1F3130040F07F6141F0D6
:1030A00040510291FE498842D8BF002004DDFD490D
:1030B0008142C8BF012001DD0D9008E000200D9085
:1030C0000198401C01900298A0F58010029002998E
:1030D000F54878440B910D9900EBC100D0E900232D
:1030E0000F9330460A920B99FEF791FDCDE9060148
:1030F000DDE90A2130460F9BFEF7E8FC02460B464D
:103100000020EA49FEF7FBFD059102460B460090C0
:10311000DDE90601FEF781FD1490E5488A464FF08F
:10312000000878440299006812904FF0005040EA7D
:1031300061010D980F9B01EB804000F50021099182
:103140000A9A1298FEF763FD32460B9BFEF762FD6A
:1031500042465346FEF761FD0646029140465146FF
:10316000099B129AFEF759FDDDE90623FEF752FD91
:103170003246029BFEF74BFD059B009AFEF74DFD84
:103180000091149A0490534610461946FEF745FDE7
:1031900006460246C7480B46029106217844FFF7CF
:1031A0005DF8CDE90510029B324610461946FEF740
:1031B00034FDDDE90532FEF730FD05910646534644
:1031C00040461946149AFEF781FC009B049AFEF7CC
:1031D00024FD3246059BFEF779FCCDE905104246F9
:1031E000534610461946FEF718FD0022B24B0291D5
:1031F0000A90FEF76BFCDDE90532FEF767FC0E4630
:103200004246AD4B4046FEF702FD029B0A9AFEF78E
:10321000FEFCDDE90532FEF7FDFC424602910A9014
:10322000334610465146FEF7F8FCCDE906015346F9
:10323000149A02990A98FEF7F0FC8A4602903346E7
:10324000424600990498FEF7E8FC5346029AFEF7BE
:103250003DFC82460B4602460591DDE90601FEF77C
:1032600035FCDDE90623002088460646FEF7CFFC44
:103270005246059BFEF7CEFC824609914FF0604214
:103280008E4B30464146FEF7C8FC049006918C4AAE
:103290008A4B50460999FEF7C0FC82460291894A42
:1032A000894B30464146FEF7B8FC5246029BFEF77A
:1032B0000DFC864B7B440D9A03EBC203D3E900233C
:1032C000FEF704FC0E9007910198FEF7EEFE0591C3
:1032D000DDE9061382460E9A0498FEF7F7FB7C4A56
:1032E0007A440D9B02EBC303D3E9002300930292BF
:1032F000FEF7ECFB5246059BFEF7E8FB00268846EE
:1033000052463046059BFEF782FC009B029AFEF770
:103310007EFC069B049AFEF77AFC079B0E9AFEF74A
:1033200079FC024600200B46029038462946FEF7FB
:1033300074FC824601912B4638461946029AFEF7E4
:1033400066FC32464346FEF768FC5246019BFEF798
:10335000BDFB07468A463246434629460298FEF799
:103360005CFC05460E463A465346FEF7AFFB594A0B
:103370008846914221DBA8EB020353EA000210D1F8
:103380002A463346FEF743FCCDE90401524A534B2B
:1033900038465146FEF79AFBDDE90423FEF7AEFE00
:1033A00021D20220FEF7E0FFFEF7BEFF0A462146CB
:1033B00018B062F31E01BDE8F08D494B28F00042C1
:1033C0009A4210D3474A08EB020353EA00027FF403
:1033D000C6AD2A463346FEF71AFC3A465346FEF778
:1033E0008DFE7FF6BCAD0022019228F000403E49E0
:1033F0003E4A01EB2051824223DA481C4FF48011EF
:1034000021FA00F040443A4AC0F30A517A44394B59
:10341000A1F2FF31CB4020EA0303C0F3130040F4D4
:103420008010C1F11401C84012680190B8F1000F7A
:10343000BCBF4042019028463146FEF7E8FB0546F6
:103440000E462A46334638465146FEF73FFB4FF0BC
:1034500000084246284B40460591FEF7DEFBCDE9C9
:103460000601264A264B40460599FEF7D6FB0091F9
:1034700002902A46334640460599FEF7C8FB3A4675
:103480005346FEF7C7FB1F4A1F4BFEF7C6FB009BC8
:10349000029AFEF71BFB0746884602460B4635E0BC
:1034A0008E9803007AB60B007A0500000000F03F0A
:1034B000B2050000E00400000000084009C7EE3F2C
:1034C000FD033ADCF5015B14E02F3EBEB8030000BB
:1034D0007C03000000009040FE822B654715973C5E
:1034E00000CC904000346F3F01FCFFFF0000E03F44
:1034F000C8020000FFFF0F00432EE63F396CA80C06
:10350000615C20BEEF39FAFE422EE63FDDE906019E
:10351000FEF7DCFADDE9062305460E46FEF777FBEB
:103520003A464346FEF776FB0F462A46334600905E
:1035300010461946FEF771FB824602462E48884621
:103540000B4605217844FEF789FE52464346FEF7B6
:1035500064FB2A463346FEF75DFB80468A463B46BF
:1035600028463146009AFEF758FB3B46009AFEF784
:10357000ADFA0691009000224FF08043404651463C
:10358000FEF745FB0F460C9042465346284631460F
:10359000FEF743FB3B460C9AFEF7B1FB069B009AF5
:1035A000FEF735FB2A463346FEF731FB0022134B6C
:1035B000FEF730FB054601980E4601EB0051081559
:1035C000002810DC28463146019AFEF757FDFEF729
:1035D00031FE042808BFFEF7AFFE28463146019AA7
:1035E000FEF74CFD05460B4618B02A4658462146C4
:1035F000BDE8F04DFEF711BB680100000000F03F90
:103600002DE9F04106460F46FEF7B2FD041E0D46B9
:1036100018BF0120284320F00040C0F17F6000F176
:10362000E040C00F0ED0301C18BF0120384320F0FE
:103630000040C0F17F6000F1E040C00F04BF0120F6
:10364000FEF792FE20462946BDE8F081000000000A
:10365000000000000000F03F000000000000F83F04
:1036600000000000000000000000004003B8E23F3E
:10367000000000000000000006D0CF43EBFD4C3EF0
:10368000033333333333E33FFFAB6FDBB66DDB3FE5
:103690004D268F515555D53F01411DA96074D13F2D
:1036A00065DBC9934A86CD3FEF4E454A287ECA3F27
:1036B0003E5555555555C53F93BDBE166CC166BFA9
:1036C0002CDE25AF6A56113FF16BD2C541BDBBBEA2
:1036D000D0A4BE726937663E000000000000000002
:1036E00000370008000000204400000048230008C4
:1036F0004437000844000020140400005823000848
:1037000000000000000000000000000000000000B9
:103710000000000001020304010203040607080977
:103720000204060800A24A04000000000000000095
:103730000102030406070809000000000000000061
:043740000000000085
:0400000508000131BD
:00000001FF
